{
  "_format": "hh-sol-artifact-1",
  "contractName": "Blog",
  "sourceName": "contracts/Blog.sol",
  "abi": [
    {
      "inputs": [
        {
          "internalType": "string",
          "name": "_name",
          "type": "string"
        }
      ],
      "stateMutability": "nonpayable",
      "type": "constructor"
    },
    {
      "anonymous": false,
      "inputs": [
        {
          "indexed": false,
          "internalType": "uint256",
          "name": "id",
          "type": "uint256"
        },
        {
          "indexed": false,
          "internalType": "string",
          "name": "title",
          "type": "string"
        },
        {
          "indexed": false,
          "internalType": "string",
          "name": "hash",
          "type": "string"
        }
      ],
      "name": "PostCreated",
      "type": "event"
    },
    {
      "anonymous": false,
      "inputs": [
        {
          "indexed": false,
          "internalType": "uint256",
          "name": "id",
          "type": "uint256"
        },
        {
          "indexed": false,
          "internalType": "string",
          "name": "title",
          "type": "string"
        },
        {
          "indexed": false,
          "internalType": "string",
          "name": "hash",
          "type": "string"
        },
        {
          "indexed": false,
          "internalType": "bool",
          "name": "published",
          "type": "bool"
        }
      ],
      "name": "PostUpdated",
      "type": "event"
    },
    {
      "inputs": [
        {
          "internalType": "string",
          "name": "_title",
          "type": "string"
        },
        {
          "internalType": "string",
          "name": "_hash",
          "type": "string"
        }
      ],
      "name": "createPost",
      "outputs": [],
      "stateMutability": "nonpayable",
      "type": "function"
    },
    {
      "inputs": [
        {
          "internalType": "string",
          "name": "_hash",
          "type": "string"
        }
      ],
      "name": "fetchPost",
      "outputs": [
        {
          "components": [
            {
              "internalType": "uint256",
              "name": "id",
              "type": "uint256"
            },
            {
              "internalType": "string",
              "name": "title",
              "type": "string"
            },
            {
              "internalType": "string",
              "name": "content",
              "type": "string"
            },
            {
              "internalType": "bool",
              "name": "published",
              "type": "bool"
            }
          ],
          "internalType": "struct Blog.Post",
          "name": "",
          "type": "tuple"
        }
      ],
      "stateMutability": "view",
      "type": "function"
    },
    {
      "inputs": [],
      "name": "fetchPosts",
      "outputs": [
        {
          "components": [
            {
              "internalType": "uint256",
              "name": "id",
              "type": "uint256"
            },
            {
              "internalType": "string",
              "name": "title",
              "type": "string"
            },
            {
              "internalType": "string",
              "name": "content",
              "type": "string"
            },
            {
              "internalType": "bool",
              "name": "published",
              "type": "bool"
            }
          ],
          "internalType": "struct Blog.Post[]",
          "name": "",
          "type": "tuple[]"
        }
      ],
      "stateMutability": "view",
      "type": "function"
    },
    {
      "inputs": [],
      "name": "name",
      "outputs": [
        {
          "internalType": "string",
          "name": "",
          "type": "string"
        }
      ],
      "stateMutability": "view",
      "type": "function"
    },
    {
      "inputs": [],
      "name": "owner",
      "outputs": [
        {
          "internalType": "address",
          "name": "",
          "type": "address"
        }
      ],
      "stateMutability": "view",
      "type": "function"
    },
    {
      "inputs": [
        {
          "internalType": "address",
          "name": "_newOwner",
          "type": "address"
        }
      ],
      "name": "transferOwnership",
      "outputs": [],
      "stateMutability": "nonpayable",
      "type": "function"
    },
    {
      "inputs": [
        {
          "internalType": "string",
          "name": "_name",
          "type": "string"
        }
      ],
      "name": "updateName",
      "outputs": [],
      "stateMutability": "nonpayable",
      "type": "function"
    },
    {
      "inputs": [
        {
          "internalType": "uint256",
          "name": "_postId",
          "type": "uint256"
        },
        {
          "internalType": "string",
          "name": "_title",
          "type": "string"
        },
        {
          "internalType": "string",
          "name": "_hash",
          "type": "string"
        },
        {
          "internalType": "bool",
          "name": "_published",
          "type": "bool"
        }
      ],
      "name": "updatePost",
      "outputs": [],
      "stateMutability": "nonpayable",
      "type": "function"
    }
  ],
  "bytecode": "0x60806040523480156200001157600080fd5b5060405162001bc738038062001bc7833981810160405281019062000037919062000400565b620000836040518060400160405280601a81526020017f4465706c6f79696e6720426c6f672077697468206e616d653a2000000000000081525082620000e460201b62000a891760201c565b80600090805190602001906200009b929190620001b3565b5033600160006101000a81548173ffffffffffffffffffffffffffffffffffffffff021916908373ffffffffffffffffffffffffffffffffffffffff160217905550506200054e565b620001868282604051602401620000fd929190620004ae565b6040516020818303038152906040527f4b5c4277000000000000000000000000000000000000000000000000000000007bffffffffffffffffffffffffffffffffffffffffffffffffffffffff19166020820180517bffffffffffffffffffffffffffffffffffffffffffffffffffffffff83818316178352505050506200018a60201b60201c565b5050565b60008151905060006a636f6e736f6c652e6c6f679050602083016000808483855afa5050505050565b828054620001c19062000518565b90600052602060002090601f016020900481019282620001e5576000855562000231565b82601f106200020057805160ff191683800117855562000231565b8280016001018555821562000231579182015b828111156200023057825182559160200191906001019062000213565b5b50905062000240919062000244565b5090565b5b808211156200025f57600081600090555060010162000245565b5090565b6000604051905090565b600080fd5b600080fd5b600080fd5b600080fd5b6000601f19601f8301169050919050565b7f4e487b7100000000000000000000000000000000000000000000000000000000600052604160045260246000fd5b620002cc8262000281565b810181811067ffffffffffffffff82111715620002ee57620002ed62000292565b5b80604052505050565b60006200030362000263565b9050620003118282620002c1565b919050565b600067ffffffffffffffff82111562000334576200033362000292565b5b6200033f8262000281565b9050602081019050919050565b60005b838110156200036c5780820151818401526020810190506200034f565b838111156200037c576000848401525b50505050565b600062000399620003938462000316565b620002f7565b905082815260208101848484011115620003b857620003b76200027c565b5b620003c58482856200034c565b509392505050565b600082601f830112620003e557620003e462000277565b5b8151620003f784826020860162000382565b91505092915050565b6000602082840312156200041957620004186200026d565b5b600082015167ffffffffffffffff8111156200043a576200043962000272565b5b6200044884828501620003cd565b91505092915050565b600081519050919050565b600082825260208201905092915050565b60006200047a8262000451565b6200048681856200045c565b9350620004988185602086016200034c565b620004a38162000281565b840191505092915050565b60006040820190508181036000830152620004ca81856200046d565b90508181036020830152620004e081846200046d565b90509392505050565b7f4e487b7100000000000000000000000000000000000000000000000000000000600052602260045260246000fd5b600060028204905060018216806200053157607f821691505b60208210811415620005485762000547620004e9565b5b50919050565b611669806200055e6000396000f3fe608060405234801561001057600080fd5b50600436106100885760003560e01c80638da5cb5b1161005b5780638da5cb5b14610113578063abaddd7f14610131578063cd349fe91461014f578063f2fde38b1461016b57610088565b806306fdde031461008d578063392338f5146100ab57806344828659146100c757806384da92a7146100f7575b600080fd5b610095610187565b6040516100a29190610d65565b60405180910390f35b6100c560048036038101906100c09190610ed0565b610215565b005b6100e160048036038101906100dc9190610f48565b6103d0565b6040516100ee9190611079565b60405180910390f35b610111600480360381019061010c9190610f48565b610551565b005b61011b61056b565b60405161012891906110dc565b60405180910390f35b610139610591565b6040516101469190611223565b60405180910390f35b6101696004803603810190610164919061129d565b6107bd565b005b61018560048036038101906101809190611368565b6109eb565b005b60008054610194906113c4565b80601f01602080910402602001604051908101604052809291908181526020018280546101c0906113c4565b801561020d5780601f106101e25761010080835404028352916020019161020d565b820191906000526020600020905b8154815290600101906020018083116101f057829003601f168201915b505050505081565b600160009054906101000a900473ffffffffffffffffffffffffffffffffffffffff1673ffffffffffffffffffffffffffffffffffffffff163373ffffffffffffffffffffffffffffffffffffffff161461026f57600080fd5b6102796002610b25565b60006102856002610b3b565b90506000600360008381526020019081526020016000209050818160000181905550838160010190805190602001906102bf929190610b72565b5060018160030160006101000a81548160ff021916908315150217905550828160020190805190602001906102f5929190610b72565b50806004846040516103079190611432565b9081526020016040518091039020600082015481600001556001820181600101908054610333906113c4565b61033e929190610bf8565b506002820181600201908054610353906113c4565b61035e929190610bf8565b506003820160009054906101000a900460ff168160030160006101000a81548160ff0219169083151502179055509050507fe6851f0b99a9d86e5d68a97f65218980851216ce297f789c6b6b7e82ca1d90c88285856040516103c293929190611458565b60405180910390a150505050565b6103d8610c85565b6004826040516103e89190611432565b90815260200160405180910390206040518060800160405290816000820154815260200160018201805461041b906113c4565b80601f0160208091040260200160405190810160405280929190818152602001828054610447906113c4565b80156104945780601f1061046957610100808354040283529160200191610494565b820191906000526020600020905b81548152906001019060200180831161047757829003601f168201915b505050505081526020016002820180546104ad906113c4565b80601f01602080910402602001604051908101604052809291908181526020018280546104d9906113c4565b80156105265780601f106104fb57610100808354040283529160200191610526565b820191906000526020600020905b81548152906001019060200180831161050957829003601f168201915b505050505081526020016003820160009054906101000a900460ff1615151515815250509050919050565b8060009080519060200190610567929190610b72565b5050565b600160009054906101000a900473ffffffffffffffffffffffffffffffffffffffff1681565b6060600061059f6002610b3b565b905060008167ffffffffffffffff8111156105bd576105bc610da5565b5b6040519080825280602002602001820160405280156105f657816020015b6105e3610c85565b8152602001906001900390816105db5790505b50905060005b828110156107b457600060018261061391906114cc565b905060006003600083815260200190815260200160002090508060405180608001604052908160008201548152602001600182018054610652906113c4565b80601f016020809104026020016040519081016040528092919081815260200182805461067e906113c4565b80156106cb5780601f106106a0576101008083540402835291602001916106cb565b820191906000526020600020905b8154815290600101906020018083116106ae57829003601f168201915b505050505081526020016002820180546106e4906113c4565b80601f0160208091040260200160405190810160405280929190818152602001828054610710906113c4565b801561075d5780601f106107325761010080835404028352916020019161075d565b820191906000526020600020905b81548152906001019060200180831161074057829003601f168201915b505050505081526020016003820160009054906101000a900460ff16151515158152505084848151811061079457610793611522565b5b6020026020010181905250505080806107ac90611551565b9150506105fc565b50809250505090565b600160009054906101000a900473ffffffffffffffffffffffffffffffffffffffff1673ffffffffffffffffffffffffffffffffffffffff163373ffffffffffffffffffffffffffffffffffffffff161461081757600080fd5b600060036000868152602001908152602001600020905083816001019080519060200190610846929190610b72565b508281600201908051906020019061085f929190610b72565b50818160030160006101000a81548160ff02191690831515021790555080600360008781526020019081526020016000206000820154816000015560018201816001019080546108ae906113c4565b6108b9929190610bf8565b5060028201816002019080546108ce906113c4565b6108d9929190610bf8565b506003820160009054906101000a900460ff168160030160006101000a81548160ff0219169083151502179055509050508060048460405161091b9190611432565b9081526020016040518091039020600082015481600001556001820181600101908054610947906113c4565b610952929190610bf8565b506002820181600201908054610967906113c4565b610972929190610bf8565b506003820160009054906101000a900460ff168160030160006101000a81548160ff0219169083151502179055509050507f9f8eb93fc073102bbd3072664634ab200707a4f11d94aace9cc8d0e4d019eff581600001548585856040516109dc94939291906115a9565b60405180910390a15050505050565b600160009054906101000a900473ffffffffffffffffffffffffffffffffffffffff1673ffffffffffffffffffffffffffffffffffffffff163373ffffffffffffffffffffffffffffffffffffffff1614610a4557600080fd5b80600160006101000a81548173ffffffffffffffffffffffffffffffffffffffff021916908373ffffffffffffffffffffffffffffffffffffffff16021790555050565b610b218282604051602401610a9f9291906115fc565b6040516020818303038152906040527f4b5c4277000000000000000000000000000000000000000000000000000000007bffffffffffffffffffffffffffffffffffffffffffffffffffffffff19166020820180517bffffffffffffffffffffffffffffffffffffffffffffffffffffffff8381831617835250505050610b49565b5050565b6001816000016000828254019250508190555050565b600081600001549050919050565b60008151905060006a636f6e736f6c652e6c6f679050602083016000808483855afa5050505050565b828054610b7e906113c4565b90600052602060002090601f016020900481019282610ba05760008555610be7565b82601f10610bb957805160ff1916838001178555610be7565b82800160010185558215610be7579182015b82811115610be6578251825591602001919060010190610bcb565b5b509050610bf49190610caf565b5090565b828054610c04906113c4565b90600052602060002090601f016020900481019282610c265760008555610c74565b82601f10610c375780548555610c74565b82800160010185558215610c7457600052602060002091601f016020900482015b82811115610c73578254825591600101919060010190610c58565b5b509050610c819190610caf565b5090565b60405180608001604052806000815260200160608152602001606081526020016000151581525090565b5b80821115610cc8576000816000905550600101610cb0565b5090565b600081519050919050565b600082825260208201905092915050565b60005b83811015610d06578082015181840152602081019050610ceb565b83811115610d15576000848401525b50505050565b6000601f19601f8301169050919050565b6000610d3782610ccc565b610d418185610cd7565b9350610d51818560208601610ce8565b610d5a81610d1b565b840191505092915050565b60006020820190508181036000830152610d7f8184610d2c565b905092915050565b6000604051905090565b600080fd5b600080fd5b600080fd5b600080fd5b7f4e487b7100000000000000000000000000000000000000000000000000000000600052604160045260246000fd5b610ddd82610d1b565b810181811067ffffffffffffffff82111715610dfc57610dfb610da5565b5b80604052505050565b6000610e0f610d87565b9050610e1b8282610dd4565b919050565b600067ffffffffffffffff821115610e3b57610e3a610da5565b5b610e4482610d1b565b9050602081019050919050565b82818337600083830152505050565b6000610e73610e6e84610e20565b610e05565b905082815260208101848484011115610e8f57610e8e610da0565b5b610e9a848285610e51565b509392505050565b600082601f830112610eb757610eb6610d9b565b5b8135610ec7848260208601610e60565b91505092915050565b60008060408385031215610ee757610ee6610d91565b5b600083013567ffffffffffffffff811115610f0557610f04610d96565b5b610f1185828601610ea2565b925050602083013567ffffffffffffffff811115610f3257610f31610d96565b5b610f3e85828601610ea2565b9150509250929050565b600060208284031215610f5e57610f5d610d91565b5b600082013567ffffffffffffffff811115610f7c57610f7b610d96565b5b610f8884828501610ea2565b91505092915050565b6000819050919050565b610fa481610f91565b82525050565b600082825260208201905092915050565b6000610fc682610ccc565b610fd08185610faa565b9350610fe0818560208601610ce8565b610fe981610d1b565b840191505092915050565b60008115159050919050565b61100981610ff4565b82525050565b60006080830160008301516110276000860182610f9b565b506020830151848203602086015261103f8282610fbb565b915050604083015184820360408601526110598282610fbb565b915050606083015161106e6060860182611000565b508091505092915050565b60006020820190508181036000830152611093818461100f565b905092915050565b600073ffffffffffffffffffffffffffffffffffffffff82169050919050565b60006110c68261109b565b9050919050565b6110d6816110bb565b82525050565b60006020820190506110f160008301846110cd565b92915050565b600081519050919050565b600082825260208201905092915050565b6000819050602082019050919050565b600060808301600083015161113b6000860182610f9b565b50602083015184820360208601526111538282610fbb565b9150506040830151848203604086015261116d8282610fbb565b91505060608301516111826060860182611000565b508091505092915050565b60006111998383611123565b905092915050565b6000602082019050919050565b60006111b9826110f7565b6111c38185611102565b9350836020820285016111d585611113565b8060005b8581101561121157848403895281516111f2858261118d565b94506111fd836111a1565b925060208a019950506001810190506111d9565b50829750879550505050505092915050565b6000602082019050818103600083015261123d81846111ae565b905092915050565b61124e81610f91565b811461125957600080fd5b50565b60008135905061126b81611245565b92915050565b61127a81610ff4565b811461128557600080fd5b50565b60008135905061129781611271565b92915050565b600080600080608085870312156112b7576112b6610d91565b5b60006112c58782880161125c565b945050602085013567ffffffffffffffff8111156112e6576112e5610d96565b5b6112f287828801610ea2565b935050604085013567ffffffffffffffff81111561131357611312610d96565b5b61131f87828801610ea2565b925050606061133087828801611288565b91505092959194509250565b611345816110bb565b811461135057600080fd5b50565b6000813590506113628161133c565b92915050565b60006020828403121561137e5761137d610d91565b5b600061138c84828501611353565b91505092915050565b7f4e487b7100000000000000000000000000000000000000000000000000000000600052602260045260246000fd5b600060028204905060018216806113dc57607f821691505b602082108114156113f0576113ef611395565b5b50919050565b600081905092915050565b600061140c82610ccc565b61141681856113f6565b9350611426818560208601610ce8565b80840191505092915050565b600061143e8284611401565b915081905092915050565b61145281610f91565b82525050565b600060608201905061146d6000830186611449565b818103602083015261147f8185610d2c565b905081810360408301526114938184610d2c565b9050949350505050565b7f4e487b7100000000000000000000000000000000000000000000000000000000600052601160045260246000fd5b60006114d782610f91565b91506114e283610f91565b9250827fffffffffffffffffffffffffffffffffffffffffffffffffffffffffffffffff038211156115175761151661149d565b5b828201905092915050565b7f4e487b7100000000000000000000000000000000000000000000000000000000600052603260045260246000fd5b600061155c82610f91565b91507fffffffffffffffffffffffffffffffffffffffffffffffffffffffffffffffff82141561158f5761158e61149d565b5b600182019050919050565b6115a381610ff4565b82525050565b60006080820190506115be6000830187611449565b81810360208301526115d08186610d2c565b905081810360408301526115e48185610d2c565b90506115f3606083018461159a565b95945050505050565b600060408201905081810360008301526116168185610d2c565b9050818103602083015261162a8184610d2c565b9050939250505056fea2646970667358221220e0f06e2336e96e354661eb2c9c1b0864aaeba1fab432c2a3cf3996bc9c6e003764736f6c634300080a0033",
  "linkReferences": {},
  "deployedLinkReferences": {}
}